:020000040000FA
:060000000A128A11DA2F3A
:1000460000340034F034413400307005F8000030DC
:100056007105F90080307205FA007F307305FB00E8
:100066007B087A0479047804031D3A283B28432840
:100076000030F3000030F2000030F1000030F000F4
:1000860000307405F80000307505F90080307605FB
:10009600FA007F307705FB007B087A047904780440
:1000A600031D562857285F280030F7000030F60059
:1000B6000030F5000030F40077087306031D6D2844
:1000C60076087206031D6D2875087106031D6D28D6
:1000D600740870060319702871287328031076288F
:1000E6000314762876280800003083120313ED00E7
:1000F6000030EC000030EB000030EA00FF308316E1
:10010600031385008E309F004130831203139F0036
:100116001F158D281F19902891288D2892281E08B2
:10012600E600E7016608E700E6016608EA006708F8
:10013600EB000030EB1BFF30EC00ED0083160313E1
:100146001E0883120313E600E701E801E9016608C9
:10015600EA07670803110318013E0319B328EB07E2
:10016600680803110318013E0319BA28EC07690849
:1001760003110318013E0319C128ED074430BD00E1
:100186008030BC000030BB000030BA004030A30015
:10019600A030A2000030A1000030A0006D08F300DE
:1001A6006C08F2006B08F1006A08F00000300A12D1
:1001B6008A158D230A128A11730883120313A70066
:1001C6007208A6007108A5007008A4000A128A1118
:1001D60065240A128A11831203132308C100220818
:1001E600C0002108BF002008BE000A128A15F725A4
:1001F6000A128A11831203133D0883160313A700FC
:10020600831203133C0883160313A60083120313F9
:100216003B0883160313A500831203133A088316BB
:100226000313A400413083120313BD002030BC0029
:100236000030BB000030BA004130A3000030A200FD
:100246000030A1000030A000831603132708831294
:100256000313A70083160313260883120313A600AD
:1002660083160313250883120313A50083160313AD
:10027600240883120313A4000A128A1165240A12A1
:100286008A11831203132308C1002208C000210823
:10029600BF002008BE000A128A11A9210A128A117B
:1002A600831203133D0883160313A300831203135B
:1002B6003C0883160313A200831203133B0883161C
:1002C6000313A100831203133A0883160313A00035
:1002D6002B0883120313A300831603132A08831221
:1002E6000313A20083160313290883120313A10024
:1002F60083160313280883120313A0000A128A1513
:1003060029220A128A110A128A1512250A128A113C
:1003160083160313230883120313E50083160313BE
:10032600220883120313E4008316031321088312A1
:100336000313E30083160313200883120313E2005A
:100346000A128A15D9220A128A1108008312031387
:100356003D088039C2004208CE003D08C20042076F
:10036600C3004308D000BC1FB929BA29BC295014C0
:10037600BC2950080319C029C129D229500A031DD6
:10038600C529C629CF290030BD000030BC00003089
:10039600BB000030BA00CF29BC17BD01DB290030F5
:1003A600BD000030BC000030BB000030BA00DB29C5
:1003B60041088039C2004208CF004F084E06031993
:1003C600E529E629E8294E17E8294108C20042072F
:1003D600C3004308CF00C01FF129F229F4294F14A6
:1003E600F4294F080319F829F9290A2A4F0A031D87
:1003F600FD29FE29072A0030C1000030C000003068
:10040600BF000030BE00072AC017C101122A003003
:10041600C1000030C0000030BF000030BE005008F0
:100426004F020318172A182A5E2A4E1F1B2A1C2A57
:10043600212A8030C2004208CE06212A5008C20076
:100446004208D1004F08C2004208D0005108C2003D
:100456004208CF003A08C2004208D1003E08C20056
:100466004208BA005108C2004208BE003B08C2005A
:100476004208D1003F08C2004208BB005108C20032
:100486004208BF003C08C2004208D1004008C20032
:100496004208BC005108C2004208C0003D08C20024
:1004A6004208D1004108C2004208BD005108C200FE
:1004B6004208C1005E2AD1015008C200C301C20928
:1004C600C309C20A0319C30A4F084207C4004308F6
:1004D6000318430AC5004508803AFF0080307F02B2
:1004E600031D772A1A304402031C7A2A7B2ABC2A67
:1004F600831203133D083C043B043A04031D842A7B
:10050600862A0130872A0030C2004208D100003016
:10051600BD000030BC000030BB000030BA004F0800
:10052600C2004208D000C52ABC2A511C9B2A9C2A1C
:10053600A52A5108C2000310420C0138C300430823
:10054600D100A82A0310D10CA82A3A1CAB2AAC2A3F
:10055600AE2AD117AE2A0130C2003D0DBD0CBC0C2F
:10056600BB0CBA0CC20BB02A0130C2004208D0073D
:10057600BC2A831203134F085002031CC32AC42A41
:10058600982AC52A4E1BC82AC92A182B5008031DAB
:10059600CD2ACE2AD82A0030BD000030BC0000305B
:1005A600BB000030BA00642C642C3E08BA073F0832
:1005B60003110318013E0319E12ABB074008031182
:1005C6000318013E0319E82ABC0741080311031862
:1005D600013E0319EF2ABD073D1CF22AF32AE12B3F
:1005E600511CF62AF72A002B5108C2000310420CB0
:1005F6000138C3004308D100032B0310D10C032B91
:100606003A1C062B072B092BD117092B0130C200E8
:100616003D0DBD0CBC0CBB0CBA0CC20B0B2B013038
:10062600C2004208D007E12BE12B3D08803AFF00CB
:100636004108803A7F02031D2A2B40083C02031D15
:100646002A2B3F083B02031D2A2B3E083A020318B9
:100656002D2B2E2B942BFF30C200FF30C300FF3012
:10066600C400FF30C5003E08C6003F08C70040086A
:10067600C8004108C9003A09CA003B09CB003C0939
:10068600CC003D09CD00CA0A0319CB0A0319CC0ACE
:100696000319CD0A4A08C6074B0803184B0F542BFB
:1006A600552BC7074C0803184C0F5A2B5B2BC80752
:1006B6004D0803184D0AC9074608C207470803181C
:1006C600470F662B672BC30748080318480F6C2B88
:1006D6006D2BC40749080318490AC5074508BD001C
:1006E6004408BC004308BB004208BA008030C20080
:1006F6004208CE06D109D10A5108031D832B842B4B
:10070600A22B0130BA07003003180130BB070030B6
:1007160003180130BC07003003180130BD07A22BB7
:10072600A22B3E08BA023F08031C3F0FBB0240083B
:10073600031C400FBC024108031C410FBD023D08CB
:100746003C043B043A04031DA92BAA2BDB2B5108BE
:10075600031DAE2BAF2BDB2B0030BD000030BC00E1
:100766000030BB000030BA00642C642CDB2B013057
:10077600C2000310BA0DBB0DBC0DBD0DC20BBC2BC8
:10078600D11FC62BC72BC82B3A14511CCB2BCC2BF5
:10079600CF2B0314D10DD22B0310D10DD22B500821
:1007A6000319D62BD72BDB2B0130D002DB2BDB2B0F
:1007B600BC1FDE2BDF2BBA2BE12BE12BCF01D11F88
:1007C600E52BE62BF82B51087F390319EB2BEC2B85
:1007D600EF2BCF01CF0AF82B3A1CF22BF32BF82B79
:1007E600CF01CF0AF82BF82BF82B4F080319FC2B57
:1007F600FD2B332C0130BA07003003180130BB073C
:10080600003003180130BC07003003180130BD0763
:100816003D1C0E2C0F2C332C3A08C2003B08C3009B
:100826003C08C4003D08C5000130C600450DC50C96
:10083600C40CC30CC20CC60B192C4508BD004408D9
:10084600BC004308BB004208BA00500A03192C2C0E
:100856002D2C332C0130C2004208D007332C332C08
:10086600500A0319372C382C3E2C5008031D3C2CFB
:100876003D2C4E2C3E2C0030BD000030BC0000301C
:10088600BB000030BA005008031D4A2C4B2C4E2CDE
:10089600CE014E2C4E2C501C512C522C542CBC17D5
:1008A600582C7F30C2004208BC055008C200031015
:1008B600420CC3004308BD00CE1F622C632C642C7F
:1008C600BD1708008312031323088039A8002808DF
:1008D600AD002308A8002807A9002908B300A21F15
:1008E600752C762C782C3314782C330803197C2C31
:1008F6007D2C8D2C330A031D812C822C8B2C0030F1
:10090600A3000030A2000030A1000030A0008B2C14
:10091600A217962C0030A3000030A2000030A100E0
:100926000030A000962C27088039A8002808AD06BC
:100936002708A8002807A9002908B200A61FA42C8A
:10094600A52CA72C3214A72C32080319AB2CAC2CDF
:10095600BC2C320A031DB02CB12CBA2C0030A700D7
:100966000030A6000030A5000030A400BA2CA6175F
:10097600C52C0030A7000030A6000030A5000030CE
:10098600A400C52C32080319C92CCA2CD02C330854
:10099600031DCE2CCF2CDA2CD02C0030A300003037
:1009A600A2000030A1000030A000D92FD92F2008C6
:1009B600A8002808F00026080A128A15BC210A1287
:1009C6008A11710883120313B9007008B800380839
:1009D600A800A901AA01AB012B08B1002A08B000A2
:1009E6002908AF002808AE003908A800A901AA0105
:1009F600AB012B08B7002A08B6002908B50028085D
:100A0600B4002108A8002808F00025080A128A1553
:100A1600BC210A128A11710883120313B9007008E7
:100A2600B8003808A800A901AA01AB012808AE073A
:100A3600290803110318013E0319222DAF072A08BE
:100A460003110318013E0319292DB0072B080311C2
:100A56000318013E0319302DB1073908A800A90172
:100A6600AA01AB012808B407290803110318013E9F
:100A760003193E2DB5072A0803110318013E031971
:100A8600452DB6072B0803110318013E03194C2DFB
:100A9600B7072208A8002808F00024080A128A15B9
:100AA600BC210A128A11710883120313B900700857
:100AB600B8003808A800A901AA01AB012808AE07AA
:100AC600290803110318013E03196A2DAF072A08E6
:100AD60003110318013E0319712DB0072B080311EA
:100AE6000318013E0319782DB1073908A800A9019A
:100AF600AA01AB012808B407290803110318013E0F
:100B06000319862DB5072A0803110318013E031998
:100B16008D2DB6072B0803110318013E0319942DDA
:100B2600B7070830A8000310AE0DAF0DB00DB10D1C
:100B3600A80B962D2108A8002808F00024080A1200
:100B46008A15BC210A128A11710883120313B9008F
:100B56007008B8003808A8003908A900AA01AB0136
:100B66002808AE07290803110318013E0319BC2DF6
:100B7600AF072A0803110318013E0319C32DB00756
:100B86002B0803110318013E0319CA2DB1072008CB
:100B9600A8002808F00025080A128A15BC210A12A6
:100BA6008A11710883120313B9007008B800380857
:100BB600A8003908A900AA01AB012808AE07290830
:100BC60003110318013E0319E92DAF072A08031183
:100BD6000318013E0319F02DB0072B080311031863
:100BE600013E0319F72DB1070830A8000310AE0D1A
:100BF600AF0DB00DB10DA80BF92D2008A8002808DF
:100C0600F00024080A128A15BC210A128A117108FA
:100C160083120313B9007008B8003808A800390811
:100C2600A900AA01AB012808AE0729080311031879
:100C3600013E03191F2EAF072A0803110318013EB0
:100C46000319262EB0072B0803110318013E0319BA
:100C56002D2EB1072108A8002808F00026080A1240
:100C66008A15BC210A128A11710883120313B9006E
:100C76007008B8003808A8003908A900AA01AB0115
:100C86002808B407290803110318013E03194C2E3E
:100C9600B5072A0803110318013E0319532EB60798
:100CA6002B0803110318013E03195A2EB707220811
:100CB600A8002808F00025080A128A15BC210A1285
:100CC6008A11710883120313B9007008B800380836
:100CD600A8003908A900AA01AB012808B407290809
:100CE60003110318013E0319792EB5072A080311CB
:100CF6000318013E0319802EB6072B0803110318AB
:100D0600013E0319872EB7072208A8002808F0001D
:100D160026080A128A15BC210A128A117108831242
:100D26000313B9007008B8003808A8003908A900EC
:100D3600AA01AB0108300310A80DA90DAA0DAB0D31
:100D4600FF3E031D9E2E2808B40729080311031829
:100D5600013E0319AF2EB5072A0803110318013EF9
:100D66000319B62EB6072B0803110318013E031903
:100D7600BD2EB7072E08A8002F08A9003008AA0024
:100D86003108AB0018300310AB0CAA0CA90CA80C48
:100D9600FF3E031DC62E2808B407290803110318B1
:100DA600013E0319D72EB5072A0803110318013E81
:100DB6000319DE2EB6072B0803110318013E03198B
:100DC600E52EB7070830A8000310AE0DAF0DB00D25
:100DD600B10DA80BE72E33083207A800A901A90D0B
:100DE6002808823EB80029080318013EFF3EB900D4
:100DF6001B2F0130A8000310B40DB50DB60DB70DAD
:100E0600A80BFE2EB11F082F092F0B2F34140B2F02
:100E16000130A8000310AE0DAF0DB00DB10DA80B3B
:100E26000D2FFF30B8070318B90AFF30B9071B2F7B
:100E3600B61F1E2F1F2FFC2E202FB201B11F242FED
:100E4600252F452FFF302E05A800FF302F05A900BE
:100E5600FF303005AA007F303105AB002B082A048D
:100E6600290428040319382F392F3C2FB201B20A5E
:100E7600452F341C3F2F402F452FB201B20A452F74
:100E8600452F452F32080319492F4A2F7D2F013050
:100E9600B407003003180130B507003003180130DD
:100EA600B607003003180130B707371C5B2F5C2FDD
:100EB6007D2F3408A8003508A9003608AA0037088F
:100EC600AB000130AC002B0DAB0CAA0CA90CA80C86
:100ED600AC0B662F2B08B7002A08B6002908B50008
:100EE6002808B4000130B8070318B90A0030B9075A
:100EF6007D2F7D2F3908803AFF0080307F02031D49
:100F0600862FFF303802031C892F8A2F952F7F30BA
:100F160083120313B7008030B6000030B5000030EE
:100F2600B400CC2F831203133908803AFF008030B7
:100F36007F02031DA02F013038020318A32FA42F10
:100F4600B02F003083120313B7000030B600003014
:100F5600B5000030B400AD01CC2F8312031338085E
:100F6600A8002808B300FF30B405FF30B5057F3070
:100F7600B6050030B705331CC12FC22FC42FB617D4
:100F8600C42F3308A8000310280CA9002908B700AD
:100F9600CC2F2D08A8002808B7043708A300360868
:100FA600A2003508A1003408A000D92F0800831636
:100FB60003130A128A1123200A128A11A8000A12A0
:100FC6008A1124200A128A11A9000A128A112520E0
:100FD6000A128A11AA000A128A1126200A128A11F6
:100FE600AB00A001A101A201A301A401A501A601D4
:0A0FF600A70183010A128A15E629FB
:10132E00803083120313D5065908BD005808BC003F
:10133E005708BB005608BA005508C1005408C00033
:10134E005308BF005208BE000A128A11A9210A12C0
:10135E008A15831203133D08D5003C08D4003B08C0
:10136E00D3003A08D200BB290800F800F401F501B9
:10137E007008F200F3017208F6007308F700C7292F
:10138E00781CCA29CB29D1297608F4070318F50A47
:10139E007708F50701300310F60DF70DFF3E031D1C
:1013AE00D2290310F80C7808031DDE29DF29C7297E
:1013BE00E0297508F1007408F000E52908000330F3
:1013CE0083160313870083120313EE01EF016F08D8
:1013DE00803AFF0080307F02031DF7290A306E022B
:1013EE00031CFA29FB29FD29262A262A0A128A110C
:1013FE0077200A128A15033083160313AE008A3043
:10140E00AD005530AC00AC0B0A2AAD0B0A2AAE0B60
:10141E000A2A013083120313EE070318EF0A003075
:10142E00EF076F08803AFF0080307F02031D212AEC
:10143E000A306E02031C242A252AFD29262A0A12A6
:10144E008A110028831203132308F3002208F200E6
:10145E002108F1002008F0004130F700B030F6000E
:10146E000030F5000030F4000A128A1127200A120B
:10147E008A15031C432A442A4C2A8312031307128B
:10148E0087120713871387154C2A83120313230819
:10149E00F3002208F2002108F1002008F00041308C
:1014AE00F700D030F6000030F5000030F4000A12DC
:1014BE008A1127200A128A15031C662A672A6F2AA8
:1014CE0083120313871187120713871307166F2AC8
:1014DE00831203132308F3002208F2002108F100FF
:1014EE002008F0004130F700F030F6000030F50033
:1014FE000030F4000A128A1127200A128A15031CE2
:10150E00892A8A2A922A8312031387110712071334
:10151E0087138716922A831203132308F3002208D7
:10152E00F2002108F1002008F0004230F7000830E8
:10153E00F6000030F5000030F4000A128A11272060
:10154E000A128A15031CAC2AAD2AB52A831203137C
:10155E0087110712871287130717B52A83120313F1
:10156E002308F3002208F2002108F1002008F00001
:10157E004230F7001830F6000030F5000030F4006D
:10158E000A128A1127200A128A15031CCF2AD02A82
:10159E00D82A83120313871107128712071387178E
:1015AE00D82A08008316031388013F3083120313D1
:1015BE00BD008030BC000030BB000030BA00831686
:1015CE0003132B0883120313C100831603132A0877
:1015DE0083120313C0008316031329088312031307
:1015EE00BF0083160313280883120313BE000A12CA
:1015FE008A11A9210A128A15831203133D08D500F8
:10160E003C08D4003B08D3003A08D2006508D90044
:10161E006408D8006308D7006208D6000A128A153B
:10162E004F240A128A1503181D2B1E2B232B8312EF
:10163E00031308148810232B831203136508F30079
:10164E006408F2006308F1006208F00083160313C9
:10165E002B08F7002A08F6002908F5002808F400E0
:10166E000A128A1127200A128A15031C3F2B402BBF
:10167E00452B8312031308108810452B8312031376
:10168E006508D5006408D4006308D3006208D20050
:10169E00BF30BD008030BC000030BB000030BA004F
:1016AE00831603132B0883120313C100831603132F
:1016BE002A0883120313C00083160313290883120A
:1016CE000313BF0083160313280883120313BE00EF
:1016DE000A128A11A9210A128A15831203133D08D0
:1016EE00D9003C08D8003B08D7003A08D6000A12A9
:1016FE008A154F240A128A150318862B872B8C2BDA
:10170E0083120313081088148C2B0800F800780835
:10171E000319922B932BA72BF31F962B972BA72BEB
:10172E007009FA007109FB007209FC007309FD00D3
:10173E00FA0A0319FB0A0319FC0A0319FD0AAF2B57
:10174E007308FD007208FC007108FB007008FA00B7
:10175E007308720471047004031DB62BB72BC12BD2
:10176E000030F3000030F2000030F1000030F000E5
:10177E004E2C4E2C9630F4007408F900D42B013008
:10178E00F4007408F90701300310FD0CFC0CFB0C7F
:10179E00FA0CFF3E031DCB2BD42BFE307D05031D13
:1017AE00D92BDA2BC62BF72BF72B0130F40074084C
:1017BE00F9070130FA07003003180130FB0700303B
:1017CE0003180130FC07003003180130FD0701300B
:1017DE000310FD0CFC0CFB0CFA0CFF3E031DEF2B53
:1017EE00FF307D05031DFC2BFD2BDC2B0B2C0B2C56
:1017FE000130F9020130F4000310FA0DFB0DFC0D5F
:10180E00FD0DF40B032C0B2CFC1B0E2C0F2C162C8D
:10181E00023079020318142C152CFF2B162C791874
:10182E00192C1A2C222CFF30FA05FF30FB057F30C5
:10183E00FC05FF30FD050310F90C7908F400F501E5
:10184E00F601F70118300310F40DF50DF60DF70D36
:10185E00FF3E031D2A2C7408FA047508FB04760853
:10186E00FC047708FD04780803193E2C3F2C452C08
:10187E00F31F422C432C452CFD17452C7D08F300FD
:10188E007C08F2007B08F1007A08F0004E2C08006C
:10189E000030831203135205DA0000305305DB00CB
:1018AE0080305405DC007F305505DD005D085C049A
:1018BE005B045A04031D642C652C6D2C0030D5007E
:1018CE000030D4000030D3000030D2000030560576
:1018DE00DA0000305705DB0080305805DC007F3021
:1018EE005905DD005D085C045B045A04031D802C61
:1018FE00812C8A2C0030D9000030D8000030D7005F
:10190E000030D6008A2CD51F8D2C8E2CC02C00308A
:10191E00DA000030DB000030DC008030DD005209E0
:10192E00DE005309DF005409E0005509E100DE0A2C
:10193E000319DF0A0319E00A0319E10A5E08DA0740
:10194E005F0803185F0FAC2CAD2CDB076008031883
:10195E00600FB22CB32CDC0761080318610ADD0797
:10196E005D08D5005C08D4005B08D3005A08D2008D
:10197E00C02CD91FC32CC42CF62C0030DA0000303A
:10198E00DB000030DC008030DD005609DE00570938
:10199E00DF005809E0005909E100DE0A0319DF0AE9
:1019AE000319E00A0319E10A5E08DA075F08031853
:1019BE005F0FE22CE32CDB0760080318600FE82CA6
:1019CE00E92CDC0761080318610ADD075D08D90000
:1019DE005C08D8005B08D7005A08D600F62C803079
:1019EE00D5068030D90659085502031D082D580812
:1019FE005402031D082D57085302031D082D5608C7
:101A0E00520203180B2D0C2D0E2D0310112D031445
:101A1E00112D112D08000330831603138700831236
:101A2E000313071C1B2D1C2D862D831603132B0849
:101A3E0083120313D500831603132A08831203138C
:101A4E00D40083160313290883120313D3008316BD
:101A5E000313280883120313D2004130D900D0306B
:101A6E00D8000030D7000030D6000A128A154F2455
:101A7E000A128A15031C442D452D862D40308312E3
:101A8E000313D5008030D4000030D3000030D200D4
:101A9E00831603132B0883120313D9008316031323
:101AAE002A0883120313D8008316031329088312FE
:101ABE000313D70083160313280883120313D600CB
:101ACE000A128A1597210A128A15831203135508D2
:101ADE0083160313AB0083120313540883160313E8
:101AEE00AA0083120313530883160313A90083124B
:101AFE000313520883160313A800862D862D831216
:101B0E000313871C8B2D8C2DF62D4230D5000830FB
:101B1E00D4000030D3000030D200831603132B08FC
:101B2E0083120313D900831603132A088312031397
:101B3E00D80083160313290883120313D7008316C4
:101B4E000313280883120313D6000A128A154F2492
:101B5E000A128A15031CB42DB52DF62D40308312B2
:101B6E000313BD008030BC000030BB000030BA0053
:101B7E00831603132B0883120313C100831603135A
:101B8E002A0883120313C000831603132908831235
:101B9E000313BF0083160313280883120313BE001A
:101BAE000A128A11A9210A128A15831203133D08FB
:101BBE0083160313AB00831203133C08831603131F
:101BCE00AA00831203133B0883160313A900831282
:101BDE0003133A0883160313A800F62DF62D0800FA
:101BEE008312031341088039C2004208CB0041081A
:101BFE00C2004207C3004308D200C01F072E082EA2
:101C0E000A2E52140A2E520803190E2E0F2E202EB3
:101C1E00520A031D132E142E1D2E0030C10000304B
:101C2E00C0000030BF000030BE001D2EC017C10125
:101C3E00292E0030C1000030C0000030BF0000303F
:101C4E00BE00292E3D088039C2004208CB063D0851
:101C5E00C2004207C3004308D300BC1F372E382EE4
:101C6E003A2E53143A2E530803193E2E3F2E502E61
:101C7E00530A031D432E442E4D2E0030BD0000305E
:101C8E00BC000030BB000030BA004D2EBC17BD01A9
:101C9E00582E0030BD000030BC000030BB000030BC
:101CAE00BA003D083C043B043A04031D5F2E602E2F
:101CBE007A2E0030C1000030C0000030BF0000306E
:101CCE00BE008030C0047F30C1044B08C200420801
:101CDE00C1044108BD004008BC003F08BB003E08DF
:101CEE00BA00FF2FFF2F5208031D7E2E7F2E912E3E
:101CFE000030C1000030C0000030BF000030BE0018
:101D0E004108BD004008BC003F08BB003E08BA00B9
:101D1E00FF2FFF2F5308C200C301C209C309C20A15
:101D2E000319C30A52084207C40043080318430AA2
:101D3E00C50044087F3ECC0045080318013E003E16
:101D4E00CD004108CA004008C9003F08C8003E083F
:101D5E00C7000030C1000030C0000030BF000030AE
:101D6E00BE000030D1000030D0000030CF00003077
:101D7E00CE00D301102F53080319C62EC72EE92EFD
:101D8E000130C2000310C70DC80DC90DCA0DC20B1C
:101D9E00C92E0130C2000310BE0DBF0DC00DC10D06
:101DAE00C20BD22ED11FDC2EDD2EDF2E3E14DF2EE7
:101DBE000130C2000310CE0DCF0DD00DD10DC20BD0
:101DCE00E12EE92E3D084A02031DF72E3C0849027A
:101DDE00031DF72E3B084802031DF72E3A08470253
:101DEE00031CFA2EFB2E0B2F51173A08C7023B0885
:101DFE00031C3B0FC8023C08031C3C0FC9023D08E4
:101E0E00031C3D0FCA020B2F0130C2004208D3073C
:101E1E00102F1A305302031C152F162FC22E172FF8
:101E2E004A0849044804470403191E2F1F2F412F47
:101E3E004E14412F412F0130C2000310BE0DBF0DB5
:101E4E00C00DC10DC20B242FD11F2E2F2F2F312FBE
:101E5E003E14312F0130C2000310CE0DCF0DD00D28
:101E6E00D10DC20B332FFF30CC070318CD0AFF3034
:101E7E00CD07412FC01F442F452F222F462FD301B0
:101E8E00D11F4A2F4B2F6B2FFF304E05C200FF3054
:101E9E004F05C300FF305005C4007F305105C5000B
:101EAE00450844044304420403195E2F5F2F622F3A
:101EBE00D301D30A6B2F3E1C652F662F6B2FD301D8
:101ECE00D30A6B2F6B2F6B2F530803196F2F702FA5
:101EDE00A32F0130BE07003003180130BF070030BA
:101EEE0003180130C007003003180130C107411C30
:101EFE00812F822FA32F3E08C2003F08C300400847
:101F0E00C4004108C5000130C600450DC50CC40C07
:101F1E00C30CC20CC60B8C2F4508C1004408C00070
:101F2E004308BF004208BE000130CC070318CD0A9B
:101F3E000030CD07A32FA32F4D08803AFF0080302D
:101F4E007F02031DAC2FFF304C02031CAF2FB02FAE
:101F5E00BF2FFF3083120313CC000030CD000030B2
:101F6E00C1000030C0000030BF000030BE00BF2FE7
:101F7E00831203134D08803AFF0080307F02031D49
:101F8E00CA2F01304C020318CD2FCE2FDB2F831218
:101F9E000313CC01CD010030C1000030C000003071
:101FAE00BF000030BE00CB01831203134C08C200E9
:101FBE004208D200521CE42FE52FE72FC017EB2F5B
:101FCE007F30C2004208C0055208C2000310420C06
:101FDE00C3004308C1004B08C2004208C1044108B7
:101FEE00BD004008BC003F08BB003E08BA00FF2FF2
:021FFE000800D9
:02400E007A3FF7
:00000001FF
